:020000040000FA
:10000000684F0020895D0000F36D0000755D000001
:10001000755D0000755D0000755D0000755D000098
:10002000000000000000000000000000E95D00008A
:10003000755D000000000000755D0000755D00004A
:1000400031070000310700003107000031070000D0
:1000500031070000310700003107000031070000C0
:1000600031070000310700003107000031070000B0
:1000700031070000310700003107000031070000A0
:100080003107000031070000310700003107000090
:100090003107000031070000310700003107000080
:1000A0003107000031070000310700003107000070
:1000B0003107000031070000310700003107000060
:1000C0003107000031070000310700003107000050
:1000D0003107000031070000310700003107000040
:1000E0003107000031070000310700003107000030
:1000F0003107000031070000310700003107000020
:10010000310700003107000031070000310700000F
:1001100031070000310700003107000031070000FF
:1001200031070000310700003107000031070000EF
:1001300031070000310700003107000031070000DF
:1001400031070000310700003107000031070000CF
:1001500031070000310700003107000031070000BF
:10016000BD19000031070000310700003107000011
:10017000310700003107000031070000310700009F
:10018000310700003107000031070000310700008F
:10019000310700003107000031070000310700007F
:1001A000310700003107000031070000310700006F
:10047000310700003107000031070000014B1B6805
:10048000184700BF300200202DE9F047058B0446D5
:100490002807904612D4022905F0070540F0CD80C8
:1004A000204605F0FCFE80B10138218B042800F2C3
:1004B0009F80DFE800F0C29D657D8D0001290CBFA3
:1004C00045F0100545F02005258388F31188BFF31A
:1004D0006F8FBDE8F08701F007035A1F012A1CD86F
:1004E000002221F00701062B276889B2C4E9002207
:1004F00009D13B4603E0628B013262831B68002B0B
:10050000F9D141F002012046218305F0C8FE002800
:1005100000F0A18041F020019CE0042B0AD121F0E1
:10052000070189B22046218305F0B9FE10B141F0E0
:1005300020012183218B01F0070AAA4575D00027ED
:10054000B946A368002B00F08E8041F0080121839A
:1005500088F31188BFF36F8FA168002900F08C80A9
:100560000D68002900F08880334652462046D1F8B5
:100570000480C047002D48D02B6829461D46F0E76F
:10058000236921F0070141F00601062DD3F8009000
:10059000218335D1B9F1000F47D041F00801218303
:1005A00088F31188BFF36F8F20463D49C84731E07B
:1005B00021F00701236941F0040189B2042DD3F829
:1005C00004902183E6D000274FF0040A3E46B8E7A6
:1005D00021F00701236941F0050189B2052DD3F807
:1005E00008902183D6D000274FF0050A3E46A8E7A1
:1005F00001F0070AAA4518D00027B9463E46A0E7F1
:1006000000274FF0060A3E469BE72B46B5E7B9F1B7
:10061000000FC9D1EFF31188202383F31288BFF3B1
:100620006F8F238B23F008032383258BEA062ED5B7
:1006300025F01003238305F007056669218B002E42
:10064000BFF649AF00232768C4E9003321F0070152
:1006500041F001012183218B4FF0000901F0070ACD
:10066000AA457FF46EAF002F94D041F0080121839A
:1006700088F31188BFF36F8F002FC8D03D683946CB
:1006800033465246204605F0F8FD2F46F4E7AB0608
:100690007FF51BAF25F02003238305F00705FFE658
:1006A000D7620000002318460649D1F89020C2F313
:1006B0000722934200DB7047C1F89830C1F8A000D0
:1006C0000133F6E700ED00E0002807DB01234109D4
:1006D000034A00F01F00834042F82130704700BFFA
:1006E00000E100E000280CDB01220649430900F08C
:1006F0001F008240203341F82320BFF34F8FBFF308
:100700006F8F704700E100E00028ACBF00F160404F
:10071000064B4FEA4111C9B2ABBF00F5614000F092
:100720000F0080F800131954704700BF14ED00E06B
:10073000EFF30583034A103B02EBC301496852F80B
:10074000330008474895000030B5104CD4F890307D
:10075000C3F30723013B984215D80D7A0B6805F0C7
:100760001F0223F01F031A43CB686D0923F01F03F8
:1007700043EA450343F00103C4F89800C4F89C2001
:10078000C4F8A03030BD6FF01500FBE700ED00E0CD
:1007900048B1054B054A1B68B3FBF2F35843044BC1
:1007A00043F00103184770472C02002040420F001D
:1007B000C0750000244B254A4FF47A611A6001226B
:1007C000234B2448C3F80424D0F82436C3F308028A
:1007D000C3F309434B4382F480721F49883201FB03
:1007E00002334FF4FA215B00B3FBF1F201FB123349
:1007F0001A49B3F57A3F28BF0132C1F80429D0F86D
:1008000020364FF47A60C3F30802C3F3094343432D
:1008100042F21C5082F4807202F2172200FB023373
:100820004FF47A701B0AB3FBF0F200FB1233B3F5FE
:10083000FA7F4FF0010328BF0132C1F81C270020C6
:10084000C1F80036704700BF2C0200200020A1072D
:10085000002008E000C0FF00F82A008000001250CD
:10086000084B70B5C31A0D4607499B1004465943FF
:100870004022064805F0BEFD2B4601462046BDE855
:1008800070401847C01D0020B76DDBB6247400000F
:10089000402373B50B4C0093041B0B460D460A49CD
:1008A000A41061430646094A094805F0CEFD011E21
:1008B00005DA30462B4602B0BDE87040184702B05A
:1008C00070BD00BFC01D0020B76DDBB6B96400006D
:1008D00024740000014B1B68184700BFB01D0020A6
:1008E00070B50221044640F20510FFF70DFF1E4BC4
:1008F0001A7912B16FF0040070BD01211B4A197101
:100900001A601B4B1A79002AF4D11A4A19711A601D
:10091000194B1A79002AEDD118485A7118601971CB
:10092000174BC3F84024174B1B6A9B0603D440F2B5
:100930000510FFF7C9FE236993B11C220021184658
:1009400006F0FDFC01251C220F4E0564066124699A
:100950000021A01806F0F3FC0020E662E564CBE776
:100960006FF01500C8E700BFB01D0020156900003A
:10097000B81D0020D5080000141E0020CB64000024
:1009800000E0105000E100E0248B00000A2810B5C0
:10099000044603D10D21044800F036F90248E1B2C3
:1009A00000F032F9204610BDC47400000023024A52
:1009B0000020C1E90023704700501600004870472E
:1009C0001C8B0000024B0B6001231360704700BFBB
:1009D000148B0000024B034A0020C3F80C2570471B
:1009E00000B0045080000080036803F01F025F2BFA
:1009F00002604FEA53129ABF024B53F822000020C4
:100A0000704700BF088B00004209022A034670B5F8
:100A100003D0012A18D0CAB170BD0E4E3269516898
:100A20000029F9D0012503F01F030C689D4000291F
:100A3000F2D08A682A4002D030464B6898473CB1D1
:100A4000236821461C46F2E7034EE7E7034EE5E73D
:100A50002346F6E7647400004474000084740000C8
:100A60002DE9F04F4368027A85B003EBC2029A4247
:100A700004D86FF0010005B0BDE8F08F5C798C42BE
:100A800000F0B1800833F2E7DBF80020C2F3C323A3
:100A9000082BC2F3080100F2A380514508BF4FF0B4
:100AA000FF31B2F1D05F19F803604FEA126310D240
:100AB000192B12D8DFE803F0142268652933651179
:100AC00011111111111111111111111111116B7657
:100AD000797C382B6FD04E2B56D06FF08500CAE74B
:100AE000C5F80416481C14D0012403A80391FFF78D
:100AF0007BFF039B04FA03F3436004E0C5F80C1684
:100B00004A1C06D00024224617E04B1CC5F80016EC
:100B100064D10BF1040B5F45B6D10020ABE74C1C50
:100B2000C5F80416F5D0012403A80391FFF75CFF74
:100B30000122039B02FA03F38360DBF80030039188
:100B400003F40040002818BF002203A818BF0124A6
:100B500001930092FFF748FF0399019B00EB81008E
:100B6000D0F88010C3F3412C009A330243EA8C037F
:100B7000134301EA08010B4343EA4403C0F8803001
:100B8000C7E7C5F80816BBE7C5F81016AAE7C5F809
:100B900060154A1CDBF80030BBD0C3F30043002BC8
:100BA000C1D0A1E7C5F86415F3E7C5F86815F0E70B
:100BB000C5F86C15EDE703A80391FFF715FF039B3C
:100BC00000EB8300D0F8803023F0E04343F0804313
:100BD000C0F880304B1C9CD0012494E70024A3E78C
:100BE0006FF0150047E7D3F800B01F7940F2FF1A05
:100BF0000568DFF80C90DFF80C800BEB87078AE7BD
:100C000016950000F0F0FCFF2DE9F04104460D467A
:100C10004768EFF3058383B9254B1B786BB14FF021
:100C20002008642663681B68D3F830316BBB012051
:100C3000FFF7AEFD013EF5D1F3E72021EFF311837D
:100C40001A4681F31288BFF36F8F60680068D0F88E
:100C5000300120B983F31188BFF36F8FEEE77B6A11
:100C600000201D706368796A1B68C3F83C17012176
:100C7000C3F84017C3F83001D3F83001196582F387
:100C80001188BFF36F8FBDE8F081EFF311831A462F
:100C900088F31288BFF36F8F61680968D1F830114B
:100CA0000029DCD183F31188BFF36F8FB9E700BF50
:100CB000642700202DE9F84F884D894FD5E900645D
:100CC000911B63EB0400490941EAC06148018019A6
:100CD00044EBD164C7E90023C5E9000400230024E4
:100CE000804AC2E90034EFF31182202383F3128893
:100CF000BFF36F8F7C4EDFF8F4913068DFF8F0813E
:100D0000B04208BF0020C9F800109646D8E900217B
:100D1000D9F80030A8B3D0E9044B4FEAE37CA342F2
:100D20007CEB0B0A05DAE41A6BEB0C0BC0E9044B05
:100D300027E0A21841EBE4710023C8E9002100225A
:100D4000C0E90423D0E9003213605A600023C0E9EF
:100D500000338EF31188BFF36F8F83689847EFF3EA
:100D6000118E202383F31288BFF36F8FD9F80030E0
:100D700030681B1BB0427246C9F80030C5D1D8E9B3
:100D800000219A1841EBE373C8E900230023C9F856
:100D90000030584B584C1B7AD6F80080E21892F875
:100DA00054C0D7E900A9554FB045D7E900100CF160
:100DB0000C0638D0B8F1000F35D0D8E90428B2F1CC
:100DC000004F78F1000B2EDAB8F1000FB8BF002207
:100DD000814508BF8A45904627D1B2F1806F24DA59
:100DE0005201012A38BF0122511840F10000C7E921
:100DF000001004EBC60554F8361068681B0189180A
:100E000003F1A04340F1000042F0004203F56223E9
:100E100044F836106860C3F828258EF31188BFF3B4
:100E20006F8FBDE8F88F6FF00048D5E9002ADFF832
:100E3000B4904FF0200BD9E9005952194AEB090A36
:100E40001546D146C8FB0B59A94270EB0908C7E902
:100E500000591BB2C9F313070FD304EBC60244F8C1
:100E60003650C2F804901B0103F1A04303F562233E
:100E7000C3F82055C3F82475CFE7891A0CF10C0C80
:100E800060EB0A00C82904EBCC0670F1000044F8BE
:100E90003C50C6F80490E6DA1A0102F1A04202F5CD
:100EA0006222C2F82055C2F82475154A9B001A44E4
:100EB0001368002BB1D04FF0FF346FF04043114E58
:100EC000D6E90001844273EB0107F9D3A84271EB24
:100ED0000909A2D2002313609FE700BFD8020020B7
:100EE000D0020020C802002010020020AC1D00200B
:100EF000C00200201802002080000020B80200205C
:100F000000210E5040270E50F0B585B06E46816826
:100F10000546103921F00F0405F023FA32460A4B3A
:100F200003F1100C374618685968083303C7634546
:100F30003E46F7D110232146284605F0FCF900383B
:100F400018BF012005B0F0BD0E8D0000064BD3F890
:100F500040231C2A05D1D3F84403431E584258416C
:100F600070470020704700BF00C0FF0003689A0769
:100F70000CD50368DB070DD50922074BC3F80C25F8
:100F80000F22C3F8042501221A60FEE7034B036019
:100F9000EF3B0360704700BF00801050F000FA5034
:100FA00038B504230A4C42F21075C4F80833012303
:100FB00063610023C4F80831D4F80831D4F84C3404
:100FC000DB0304D50120FFF7E3FB013DF6D138BD7B
:100FD00000E0105010B51B4B1B4CD3F84C14D3F849
:100FE0004C2411F4803F14D0900701D0FFF7D8FFB4
:100FF0000022144BC3F84024C3F80821D3F8082179
:1010000001221A61226872B9D3F80821002AFBD0A4
:1010100011E0D3F84824D107EAD5D3F85024920739
:10102000E4D122681AB10422C3F8042310BDD3F816
:101030000821002AFBD00022C3F80821D3F8083188
:10104000F4E700BF00E01050141E0020034A4309DB
:10105000D35C00F01F001844C0B270470695000032
:10106000F0B50646002487B0114F019117F8012B07
:1010700006AB03EBD20313F8143C02F00702D34093
:1010800013F0010306D10134032CEFD100231846DD
:1010900007B0F0BD074A03AD07CA85E8070055F859
:1010A00024100A6A46F824200A62002AEBD0EEE7F0
:1010B0001F950000807500000123044A03FA00F028
:1010C000936823EA00039360704700BF800000200C
:1010D000124B70B553F82050013053F82060AE42E7
:1010E00000D870BD6C68B4B1237FDB0711D463698D
:1010F00053B12046984738B10028B8BF4042FF2876
:10110000A8BFFF20E3681870E268537843F001033A
:1011100053700835E3E72B689847FAE7E08A000048
:1011200001680E4A0346914215D1C169A2F110220D
:10113000A2F1EF1291420ED18268012A0BD8C26847
:1011400012B101698A4206D0586928B19B691B1AFD
:101150005842584170470120704700BF55AA00FF10
:1011600070B50D4B9E68A6B13046FFF7D9FF044617
:1011700078B9F3686BB935690DB9204670BD28465A
:10118000FFF7CEFF28B9EB68B34202D12E462D6996
:10119000F2E70124F1E700BF841D002010B5034BE6
:1011A0000A461B6800210446984710BD040200202F
:1011B00010B5044610B109B1FFF7F0FF024B20460D
:1011C000BDE810401B6818470802002070B5446A4B
:1011D00005460E4644B9074B01201B6898476862D4
:1011E00028B12046AE6270BD6FF08A00FBE76FF059
:1011F0008C00F8E70C0200200022074BC3F81021F6
:10120000C3F80C21C3F80021C3F80421C3F8082156
:10121000C3F81421704700BF00500450C36870B574
:101220007BB9C36900F128021A60C369454A9A6014
:101230004368C269DB6843F48063D360C3691033D9
:10124000C361836A9B052FD40368C268DD6800F11F
:10125000EC04302D34BF082610261D6901366B1EA4
:101260001340EB1AB34238BF5B191C44D50004F895
:10127000015C03F1EB045209044400F1ED05A542C1
:101280005CD1802280F8EC20426AC469C4322260BA
:10129000C26993604468C269E468D460C26910326C
:1012A000C26102691A4402610269C469D31C23F055
:1012B00003039B1A54F8042C42EA032244F8042C3A
:1012C000C26952F8084C234443F0005342F8083CEA
:1012D000026A0368DB6811600168026AC968033347
:1012E0009160026A23F0030302F1100101620168B8
:1012F000C96899420BD0002111610168026AC9686E
:101300005B1A43F080439360036A10330362836A7D
:1013100013F4806311D102685169D26891420CD0F4
:10132000026A13600268016A5369D2689B1A43F02B
:1013300080438B60036A1033036270BD04F8012D93
:10134000120A9CE704000020144B4FF0010C1A68AD
:1013500008209169C3E919C0C1F30B02482A5A65F4
:1013600028BF482211F4003F9A6508BF0022DA65C1
:1013700011F4803208BFC3E9152201F47002B2F5FE
:10138000700F14BF00229A6D00299A65BCBF00221D
:10139000C3E9192201221A65704700BF2407002003
:1013A00038B5054644680121E068FFF759FB6B68D2
:1013B00019686369C1F82435E28BA38BA07E1343BF
:1013C000228C1343628C1343627E9BB20243207EC5
:1013D00002431343C1F86C3569680B68D3F80022E7
:1013E00042F48022C3F800220822C3F800254A6A8A
:1013F0000121C3F83C270022C3F840271965D3F820
:1014000030110029FBD0C3F800252846BDE838403C
:10141000014905F05CB800BFC76500000C22104B05
:10142000014602FB0033002030B4D3E90E5298632A
:10143000EFF31180202484F31288BFF36F8F1C6CAC
:1014400004F0C00444F002041C6480F31188BFF36C
:101450006F8F1DB12B4630BC0248184730BC704717
:10146000C01D002024740000154B9A6A12F0007F02
:101470009A6A14BF1E201D2012F0807F9A6A18BF3E
:101480001F2012F4801F9A6A18BF022012F4002F46
:101490009A6A18BF212012F4802F9A6A18BF22205E
:1014A00012F4003F9A6A18BF232012F4803F9A6A10
:1014B00018BF24206FEA02426FEA12429A62704714
:1014C00000ED00E010B5194B0246986A9C6A10F4D2
:1014D000805F14BF1720162014F4006F9C6A18BF99
:1014E0001820A40509D5986B986A000404D51AB190
:1014F0009A6A22F400429A6219200C4B9A6A12F4FA
:10150000806F9A6A18BF1A20D2050CD49B6A13F414
:10151000005F18BF1C20054A936A43F47F4393621F
:1015200000230B7010BD1B20F5E700BF00ED00E0AD
:1015300010B51C4B0246986A9C6A10F0100F14BF3D
:101540001120102014F0080F9C6A18BF1220A40765
:1015500009D5586B986A000604D51AB19A6A22F028
:1015600080029A6213200F4B9A6A12F0010F9A6A56
:1015700018BF142012F0200F9A6A18BF1520D40645
:1015800058BF9B6A074B9A6A920642BF5A6A22F476
:1015900000525A629A6A42F0FF029A6200230B706C
:1015A00010BD00BF00ED00E02DE9F84F06460F46E4
:1015B000904699460024DDF828A0DFF844B0A24503
:1015C00001D800200FE0AAEB0405B5F5806F28BF15
:1015D0004FF4806530462B46094A04EB080104F0BD
:1015E00088FE10B10120BDE8F88F2B465A463846D8
:1015F00004EB090104F09FFE0028F3D12C44DEE740
:101600001C03002038B50D4B0546C068DC6D04F0A6
:101610002CFE844203D2E86804F027FE04464FF40F
:1016200040726243A9686442503222400123284636
:10163000891A05F079F9C00F38BD00BF201D0020C0
:101640002DE9F04147680646BD6885B395F87440BA
:101650006CBB4622214605F1140095F8758005F013
:101660006EFE21461A4A2B6852F838C08C4524D1A8
:101670004FF0000840F20D14C3F84481D3F8442120
:10168000144A934214BF2046DB20FFF71DF80123C4
:1016900085F874302B66BB680F4A0221DB20C3E952
:1016A0000328FFF731F802212046FFF72DF83046D6
:1016B000BDE8F041094904F00ABFCAB2920002F540
:1016C0008070442A04BF1C501A580131CEE700BF75
:1016D000F88A000000A00D50090A000073610000A4
:1016E0000022144B10B51A60134B144A00211A60E3
:1016F000134B144A1A60144B13F003020FBF4FF43C
:10170000006402F2FC74C2F104029B1818462246DF
:1017100005F015FE0D4A0E49C2E900040160A1F171
:101720001021203CA1F1EF1190604460C161D060B4
:10173000002010BD941D00200C0200205D1D000043
:1017400008020020491E0000641F0020841D0020A4
:1017500055AA00FFF8B51E4D064695F880350F4690
:101760007BB300242B462246197FD1B13CB9022914
:1017700005D1196A19B91979002918BF1C46013217
:10178000202A03F12C03EFD114B96FF08C0006E08E
:10179000204605F05BF8204605F005F910B100245D
:1017A0000DE01C46237F7BB90123237736B1094B1B
:1017B000651BAD105D4305F18045356000203C6040
:1017C000F8BD6FF08800EAE76FF09600E7E700BF2A
:1017D00094070020A38B2EBA70B5174D1446A8426B
:1017E00026D8C0F5B21303F580539A4220D8CAB167
:1017F00042F20103114DC5F80035A9B105F0C1FD54
:10180000BFF35F8FD5F81834DB0706D4C4F30804A0
:101810001CB10123AB60BFF35F8F4FF40052074B45
:10182000C3F80025002070BDFF2105F088FDE7E723
:101830006FF01500F7E700BFFF4F160000B004502F
:1018400010461A46084B10B5994209D8C1F5B21492
:1018500004F58054A24203D805F093FD002010BD8A
:101860006FF01500FBE700BFFF4F160010B4EFF359
:101870001182202181F31288BFF36F8F2B480368F8
:1018800043F0020413F0010F0460294B26D182F3C8
:101890001188BFF36F8F0022C3F81021D3F8101105
:1018A000C3F81821D3F81811C3F81421D3F8141170
:1018B0002049D1F840131C2904BF012199601C4B19
:1018C000C3F80021D3F8002101221A601A4A1268D5
:1018D0000AB37122C3F8042310BC7047D3F80C0478
:1018E000C003D4D5EFF3118081F31288BFF36F8F5B
:1018F00012490B6C03F0C00343F002030B6480F346
:101900001188BFF36F8F82F31188BFF36F8F0020B0
:1019100010BCFFF783BDD3F80021002AFBD00022C2
:10192000C3F80021D3F80031D6E700BF101E002015
:1019300000E0105000C0FF00B81D0020C01D0020B6
:1019400070B5EFF31185202383F31288BFF36F8FF7
:10195000164A136823F00201116013F001021CD132
:101960007121134B42F21074C3F80813012159601E
:10197000C3F80021D3F800210E4A0D4ED2F84023BF
:101980001C2A08BFD960D6F80C3413F4803309D070
:101990000120FEF7FDFE013CF5D185F31188BFF370
:1019A0006F8F70BD044A5371F7E700BF101E00200F
:1019B00000E0105000C0FF00B81D0020684620F075
:1019C00007018D4601B5194BD3F80021DAB1BFF3F9
:1019D0005F8F4FF0A3418A6ABFF35F8FBFF35F8FC2
:1019E0004FF0FF300863BFF35F8F0021C3F8001191
:1019F000D3F800310E4B196819680A431A60BDE824
:101A0000014085467047D3F808110029F7D002201D
:101A1000084909688860C3F80821D3F80831064BE3
:101A20001A681A6842F00102E8E700BF008004501B
:101A3000E402002024070020E002002038B5084B13
:101A40005A78D20709D51C783CB9064D284604F0CF
:101A5000EDF92046044B1D6038BD6FF01200FBE726
:101A6000700200208D090000300200202DE9F04FA7
:101A7000814659F8043B8BB0D3F8141390F87540A5
:101A800000936C4BC9B241F40031804653F83420C6
:101A9000009804F007FE810305463AD50023CDE9FE
:101AA00007330993634B07A803EBC4035B6819462C
:101AB0000193FFF7D5FA042303EBC40303934FF01C
:101AC000000B5D4B0DF11C0A0293029A594912F862
:101AD000013B0292039A02EBD3028A5C03F00703F4
:101AE00022FA03F3DA071AD40BF1010BBBF1030F4F
:101AF0000AF1040AE9D14FF400310022009804F001
:101B0000D1FD019907A8FFF7ABFA0028D7D125F43A
:101B100000350124002D75D10BB0BDE8F08F474B87
:101B20005B440493DAF800100029DDD091FAA1F1AA
:101B3000B1FA81F1049B1C7841EA44142046FFF776
:101B400085FA08EB4000878AC808BB080593012383
:101B50001AF8002001F0070103FA01F122EA01025C
:101B60000AF8002006A80694FEF73EFF069A059B99
:101B7000203250F82220C7F382065B073746C2F3B3
:101B8000014223D54846D6B221463A4604F03DFEEE
:101B900006A80694FEF728FF069B203350F8233052
:101BA000C3F301439E4207D10021204604F0A1FD6A
:101BB0003146204604F09DFD06A80694FEF714FF6A
:101BC0000122069B02FA03F30362ABE7022A0DD15E
:101BD0000321204604F08DFD06F00503012BEBD117
:101BE0003A462146484604F010FEE5E70221204629
:101BF000059204F07EFD032EF2D0059A032ADBD174
:101C0000022EECE795FAA5F3B3FA83F3009904FAF0
:101C100003F225EA020503F5A27251F8222008EB2F
:101C200043034846B3F86410C2F3014204F0EDFDEB
:101C300070E700BFF88A00001F9500001F950000A4
:101C4000012270B53F49D1E8EF3FC1E8E02F0028FD
:101C5000F9D13BBB3C498A608A684B6002F00302C1
:101C6000012ACB601ED1CB608A68032A1AD8EFF311
:101C70001185202282F31288BFF36F8F4FF6FF7613
:101C80003248848E04F00702C48EB4423CD0022A4B
:101C900027D10134C48685F31188BFF36F8F1C30C0
:101CA00004F0EBFAEFF3058313B9294A127882BBEB
:101CB000EFF31183202282F31288BFF36F8F01218B
:101CC0000024244AD2F84C54D2F84C04ED0326D513
:101CD000800724D189B383F31188BFF36F8F00206D
:101CE00070BD5124D440E6070ED50B60036A43B99A
:101CF000C0E9071142B92A4602211748FEF7C4FB82
:101D0000D0E719600162F5E785F31188BFF36F8FA3
:101D1000C8E704210F4AC2F808131946D0E772B683
:101D200084F31188BFF36F8FBFF34F8F20BF83F30E
:101D30001188BFF36F8F62B6C4E70423C2F804337F
:101D4000CDE700BFA81D0020981D0020C01D002069
:101D50006427002000E01050DC1D0020F8B5384D4D
:101D60002B68EE68D3B1AB68C3B1002860D00029FE
:101D70005ED001FB00F4B4FBF0F0884258D1211D85
:101D800056D8A2070CD024F003020432334603E0F5
:101D9000586890424ED29B69002BF9D11846F8BD85
:101DA0002246F3E7801A232803F120061CD80122DB
:101DB0009A60D3E90512A9B18A619A690AB1596991
:101DC00051610022C3E905222B69DB0703D5FFF728
:101DD000C7F9002831D122460021304605F0AFFA7C
:101DE0000346DBE7EA60E8E702F1200C03EB0C01B5
:101DF0002038C1E90107CB601869124F086143F828
:101E00000C70A7F11027A7F1EF17CF6100B1C160E7
:101E1000586948619F698F6140B18161886900B1EB
:101E2000416101201961C3E90120CAE7E960F5E7D2
:101E30000023B3E79F68002FB4D0012004F06CF9B1
:101E4000841D002055AA00FF70B50546002840D02B
:101E50003B4E3368002B3CD0B268002A39D0834215
:101E600003D872681344984202D3012004F054F955
:101E7000A0F120042046FFF753F90028F5D155F8CA
:101E8000183C012BF1D155F8143C45F8180C0BB354
:101E90009A68FAB955F81C2C02F120015A680A44D4
:101EA0005A6055E905321A6155F8145C2B6903B183
:101EB000DD6020220021204605F041FA286908B1A2
:101EC00083684BB333699B0703D5FFF749F90028B3
:101ED000CBD170BD55F8100C00282AD0836843BBC5
:101EE0004268636813442033636003692361D4E963
:101EF00005239AB9CBB9436963618269A261B3B121
:101F00009C61A36903B15C61236903B1DC60202299
:101F1000002105F014FAD5E72C46E1E79361A369A7
:101F2000002BE8D062695A61E5E7F360F7E7F460F7
:101F3000E7E7F36845F8083C03B15C61F460C1E78A
:101F4000841D002030B50D46816887B0102302AA99
:101F50001039044604F0CDF9002802DA012007B058
:101F600030BD1022204602A904F051FB00283FD1C9
:101F70001022204902A805F011FA00280CBF012305
:101F800002232B70A1680123203921F00F01204684
:101F90000DF10702203904F0ACF90028DEDB9DF8D2
:101FA0000730204603F00F021B096A702B710122D3
:101FB0000DF1070104F02BFB10B96B78042B03D94A
:101FC00001236B7000232B71A2682046203A22F077
:101FD0000F02103AA91C04F02BFB0028BED1A26806
:101FE0002046203A22F00F02E91C04F021FBB6E75C
:101FF0000323C6E70E8D00002C232DE9F341204D6D
:102000000F4603FB0055D5F82080B8F1000F01D131
:1020100005F08DF9EB682E8940461E4404233146B5
:102020000DEB030204F065F9044620B101242046BB
:1020300002B0BDE8F08146F60813BDF804206D89B2
:102040009A421AD1BDF806309D4201D00324EEE732
:10205000042340460DEB0302A91904F04AF90028B5
:10206000E4D146F60713BDF804209A42EED1BDF83C
:1020700006302B4433443B60D9E7002DF1D0E5E72F
:10208000201D0020F0B5214C0546266A85B0F06879
:1020900004F0EBF84FF440735843B3685030834278
:1020A00001D205F044F96979E46D012904BF4FF0CC
:1020B000000C2746297918BF670001F1FF3118BFCE
:1020C0004FEA042C04FB01342B68241A6444013BBE
:1020D000F06807FB034404F0C8F80746304604F0F4
:1020E00040F90F2201460DF1010005F028F92B7986
:1020F0006A468DF8003021463B46304604F01BF915
:10210000003818BF012005B0F0BD00BF201D002021
:102110002DE9F3410221E420FEF7F6FA7D4B7E4CD7
:10212000D3F8182722F4403242F40032C3F81827BB
:10213000227822B16FF0770002B0BDE8F081D3F8C9
:10214000101521F00201C3F81015D3F8101541F055
:102150000101C3F810150521C3F8A4160421C3F822
:10216000AC160723672101F001000244013BD2B203
:102170004FEA5101F7D1052A40F0C38019464FF0CC
:10218000010C654E00256720CFB204E00CFA02F284
:1021900020EA0200013590FAA0F25FFA85FEBE4502
:1021A000B2FA82F2F2D3013132750529224482F863
:1021B000547006F10C06E5D10121002557489A0814
:1021C00001FA02F212F0670F18BF1D500433302BD2
:1021D000F5D1E420FEF778FA4E4B0027D3F810250E
:1021E00003F5C07322F00202C3F8902340F6FF7299
:1021F000C3F8A8214A4A1F60A3F5807104339342B3
:102200000F60F8D14FF00108424D464EC5F860808E
:102210003068454BB0FBF3F05D235843434B43EA32
:1022200008039847636801A803EA080384F800805C
:10223000019304F065FC0028FFF67EAF3C4B20754F
:102240001F72636823F001036360A36843F0010316
:10225000A360D5F810359F073FF56CAFD5F8103562
:1022600043F00203C5F81035D5F8482712F00102F3
:1022700002BFD5F8483743F00103C5F84837254B6E
:10228000D3F84017D3F844174800F9D42AB9D3F843
:10229000482722F00102C3F84827234A3368B3FBDA
:1022A000F2F31C4A03EB431383B3D2F84017D2F87E
:1022B0004417490028D44FF0FF306FF040411D4DC6
:1022C000D5E90078B84271EB0806F9D31A4927F02E
:1022D0001F02C1E900284FF0FF304FF0FF310C2200
:1022E000164BC3E9000194F85430002002FB03436D
:1022F000134A1861DA6001221875064BC3F82423CB
:102300001AE76FF08B0017E7013BCDE76FF0730022
:1023100012E700BF00200E508000002000210E5068
:10232000B0210E502C02002040420F00B07500007A
:102330001802002040270E50D8020020D0020020B2
:10234000B50C00002DE9F041466801F01F04307C17
:10235000B56888B044EA4014002D00F0B580B2F5AD
:10236000001F07D12146284604F016FA002008B0C5
:10237000BDE8F0810027B2F5800F03A803974760FE
:1023800063D1B3F1007F14BF052304238DF80C3013
:102390000023CDE906030593F3680DF10707CB4051
:1023A00013F0010F5CD1B2F1A07F59D102A80294C1
:1023B000FEF71AFB029B203350F82330DA074FD484
:1023C0003A462146284604F00DFA16300AD195F80F
:1023D00075003F4B03EB800004F092FB0028C6DB46
:1023E0008DF8070004972146B06805AA04F0A2FB07
:1023F0000028BCDBB5682146284604F08DF98046EC
:102400002046FEF723FE2F6800F10806B8F1000F02
:1024100037D0284604F08BF998BB05EB4606B38805
:102420005B0B990001F58072B850BA582A680A44CB
:10243000D2F8101541F00101C2F8101501222968E7
:1024400002FA03F3C1F8143390E7B3F1C06F05D07B
:10245000B3F1007F14BF0123022397E7032395E71D
:102460003A462146284604F0BDF90028BBD195F82C
:102470007500174B9DF8071003EB800004F0F7F888
:10248000B1E7D7F8143305EB46059B035CBF4FF467
:102490000033C7F81433AB88C3F38203042B0FD087
:1024A000052B0FD002A80294FEF79EFA029BC1688A
:1024B000D94001F001010231204604F01AF955E734
:1024C0000321F9E70221F7E76FF085004FE700BF2E
:1024D000240200202DE9F04FD50640F2063548BF12
:1024E0004FF00309D0F8048002EA050598F810308F
:1024F00058BFC2F3401989B001F01F06B5F5837FBC
:10250000144646EA43168DF80A9044D00DD8062D9D
:1025100043D005D8A5B1022D12D06FF0150037E0D9
:10252000B5F5807FF9D101250AE040F202239D42F2
:1025300035D0B5F5407F34D0B5F5007FEDD1042519
:102540000123200303FA01F12DD5D8F80430596096
:10255000D8F808706FBB05A80596FEF745FA059BED
:1025600084F4803100EB8300D0F88020C1F3004177
:10257000C4F3404343EA410322F4706243EA89030F
:1025800022F00F0243EA05231343C0F880300020F5
:1025900009B0BDE8F08F0925D2E70825D0E7062568
:1025A000CEE70525CCE7620344BFD8F80430996034
:1025B000CEE7314638460DF10B0204F013F914F45E
:1025C000403901903DD13046FEF740FD04B207EBA3
:1025D0004404A38ADB0725D5384604F0DDF83146EC
:1025E000384604F099F840B1A28A3B68520B03EBDD
:1025F0008203C3F81095C3F810953846314604F0AD
:10260000A1F8002305A8A3820596FEF7EDF9059B26
:1026100000EB8300D0F88020394B134043F00203D5
:10262000C0F88030019B002BB1D1D8F808309DF85C
:102630000B1093F87500334B03EB800004F017F890
:10264000A5E7002303AACDE90623384605AACDE96C
:102650000333059304F06EFA002898DB14F400337A
:10266000D8F808903DD014F4803430460CBF4FF0B9
:10267000010A4FF0000AFEF7E9FC314607464846DA
:102680009DF80AB004F053F828B9484604F044F81D
:1026900000287FF47CAF3FB209EB4707BB8A13F0F9
:1026A0001C0F02D0002C3FF472AF05A80596FEF770
:1026B0009BF9059B00EB8300D0F8803023F4706316
:1026C00023F00F0343EA8B0343EA4A0343EA05235B
:1026D00043F00103C0F88030BB8A43F00303BB82A0
:1026E000A0E7CDE9063331460DF10A03484605AAB5
:1026F000059304F01FFA0028FFF649AF92E700BFE8
:10270000F0F0FCFF24020020F8B501262B4C2C4DE4
:10271000D4F80C3303F071033BB9284C294DD4F89D
:102720000C3303F00C035BBBF8BDB3FA83F3002159
:10273000C3F11F039A0002F5807292B202F1A04227
:1027400002F58712116006FA03F7042B1268D8B25B
:10275000C4F8087308D0062B10D02B689847D4F81B
:102760000C3303F07103D7E702236B71C4F8141123
:10277000D4F814312023C4F80433EEE76971ECE790
:10278000B3FA83F300260121C3F11F039A0002F577
:10279000807292B202F1A04202F58712166099404F
:1027A0001268C4F80813032BD8B22B6808BF6E71E7
:1027B0009847D4F80C3303F00C03B4E700E0105052
:1027C000B81D0020141E0020F7B5284B284CD3F864
:1027D0002C6304F188070EB903B0F0BD96FAA6F099
:1027E0000123B0FA80F08340DA43224926EA030647
:1027F000231893F85450830019440C2303FB05431A
:10280000DB6873B3D7E8EF3F03EA020CC7E8EECF0B
:10281000BEF1000FF6D1C340DB0719D5020102F16A
:10282000A04202F56222D2F82435D2F82025D1F850
:1028300000C0BCF1000FCED04FF0000CC1F800C0BA
:102840000C2101FB054529690091E9688847C2E729
:1028500005F10C0304EBC30C54F83320DCF804300E
:10286000E5E70A68002AB6D00B60B4E700200E50F6
:102870008000002000210E502DE9F0430446002680
:1028800093B00DF11F05DFF8788025F01F051022A9
:1028900001231C4911F8010D013A03440B704FEA62
:1028A0001323F7D1A81902F0A3FFA946074618BBC6
:1028B000D8E90C321036013342F10002302EC8E95B
:1028C0000C32E4D154B104F1300299F8003014F81C
:1028D000011B4B40A24209F8013BF6D12E46084CA1
:1028E0000FCE0FC496E80F00203584E80F0095E85E
:1028F0000F00103484E80F00384613B0BDE8F083B1
:1029000078020020A80200200FB430B587B00AACCE
:1029100054F8045B1022002102A8019404F00FFD7A
:1029200002238DF80A30064B2246294602A803935B
:1029300003F0A8FA07B0BDE8304004B0704700BF0C
:102940007D0400001FB50A4B6A461C6A1023A1686B
:102950002046103903F0CDFC034628B122784521EA
:102960000448FFF7D1FF0024204604B010BD00BF8B
:10297000201D00201E8D000000222DE9F04F8FB099
:102980000446CDE9082203F0F6FB5E4E00283DD058
:102990005D4D3368AB4206D1104609A9FFF72CFB09
:1029A00008B104F0C4FCF36AAB4205D1012008A9C8
:1029B000FFF722FB0028F4D1DDE90832934288BFFB
:1029C0000993099BA3604FF0000949214F48099DD5
:1029D000FFF79AFF736AD3F804804B4643449D4245
:1029E0004F4609F10109F9D8204603F0C4FB00283D
:1029F00036D04FF44072F36DB56A53430022503322
:102A0000013D42449A420ED2013DFAE7FFF79AFF98
:102A10000028C6D004F1080103F081FC0028C0D1D1
:102A2000A3680993CFE74D451AD857213848FFF7D7
:102A30006BFFBA1C08FB05F3572108FB02F235486F
:102A4000FFF762FF0123E371334B1A68002A03DDAD
:102A500057213248FFF758FF00200FB0BDE8F08F34
:102A6000356A002D9DD0F76C002F9AD063682C4AF0
:102A700003F0FF2393423CD12368012B39D1384620
:102A80000AA9FFF75FFA00288BD19DF82820012AB8
:102A900035D0244B2449032A08BF0B469DF82B2030
:102AA000492102929DF82A20204801929DF8292070
:102AB00000921F4AFFF728FF9DF82830032B18D1FA
:102AC0003846FEF79FFD00287FF46BAF384604F0D0
:102AD00009F800287FF465AF3846A16803F0F3FFDA
:102AE00000287FF45EAF3846FEF70EFA00287FF428
:102AF00058AF6379012B40F0A480CB469BE00D4B8F
:102B0000CCE700BF201D00203DB8F396598D000092
:102B1000828D0000B18D00001C070020338E000064
:102B200000010004558D00004F8D0000F28D000063
:102B3000E28D00004A8D00002368C3F101024A447F
:102B40005A4576D3726A012B52F83B10D2F800A096
:102B500002EBCB0252F8082C0491A2EB0A02A1EB83
:102B60000A0105910692079341D1E268022A38D002
:102B70002846FEF747FD00287FF413AFF06C0CA940
:102B8000FFF7E0F900287FF40CAFE279012A11D0B9
:102B90000E2A3FF606AF8DF82820A968284620396E
:102BA00021F00F01079B0AAA203903F05FFF0028DC
:102BB0007FF4F7AE9DF83330012B05D1284603F0A2
:102BC00091FF00287FF4EDAE2846A16803F07BFF5B
:102BD00000287FF4E6AE2846FEF796F900287FF439
:102BE000E0AE3846FEF70EFD00287FF4DAAEAB68A3
:102BF000059A9A42BFF4D5AE9A44049BAAEB030A05
:102C0000D0453FF6CEAE134629462846069ACDF863
:102C10000080FEF7C9FC00287FF4C3AE2046FFF712
:102C200031FA23680133236018B13C4A1368013339
:102C300013600BF1FF3BBBF1000F7FF47DAF01236D
:102C4000236002234FF0010A6371CA453FF6FCAED0
:102C5000236853455ED8726A4FEACA0352F83A10A5
:102C6000083BD2F800B00791D158326DD358059384
:102C700013680693DDE905329B1A04932379012B2F
:102C800046D1AA68A1EB0B039342BFF48AAE5A4423
:102C9000521A90453FF685AE29463846049ACDF83B
:102CA0000080FEF781FC00287FF47BAE2046FFF712
:102CB000E9F90223237118B1184A1368013313602C
:102CC000BB68049A9A42BFF46CAE069A1A44134643
:102CD000059A9B1A98453FF664AE079A39462846EE
:102CE000049BCDF80080A2EB0B02FEF75DFC0028F0
:102CF0007FF457AE2046FFF7C5F923680133236000
:102D00000123237130B1054A13680133136001E0D8
:102D1000022BD5D00AF1010A97E700BF1C0700205B
:102D20002DE9F743DFF8D49007460E46C84641B177
:102D30000024304603F01FFA28B123461C46002128
:102D400024E00B46FAE7FFF7FDFD20B101A903F0EF
:102D5000E6FA054638B10120012C01D107B900205F
:102D600003B0BDE8F083D8F82430019A59680346CF
:102D70000B449A4205F10105FAD87379012B0CD165
:102D8000E4B932682346AA4298BF21462C2202FBAE
:102D90000383186AB0B904F0CAFA022BCDD13368A4
:102DA000012B04D9AB42C8D884F00103C7E7C4D1D2
:102DB00034B13379023B18BF0123C0E72346BEE795
:102DC0002346E3E720234A4603F093FA0028C2D1C2
:102DD0002EB9012CC3D0012309F12C09AEE7D9F893
:102DE0000020074B9A4205D1012CB8D0012409F1EB
:102DF0002C099EE74FF0FF30AEE700BF201D0020FA
:102E00003DB8F396002210B50C4B1C7884420FD0CD
:102E10000132092A03F11003F7D16FF0010010BD50
:102E2000D2685078C00706D5107820B90B60F6E755
:102E3000DA68002AF4D16FF01200F0E7F0760000B3
:102E400030B585B06946042003F08EFF044610B10A
:102E5000FF2005B030BD072002A903F085FF01283F
:102E600040D1224649213348FFF74EFD324B8DF8C1
:102E70000C40029300229DF800109DF808002F4C92
:102E80002378042B06D0052B2FD14B1E18BF01230E
:102E9000002B39D06378042B05D0052B2CD1431E91
:102EA00018BF012383B3A378042B03D09DF80350EC
:102EB0009D4229D1E378042B03D09DF80B509D420D
:102EC00022D12379042B1BD16279022A28D11C4BF1
:102ED0001C4800224921FFF717FD6079831E022B51
:102EE000B7D9B5E70028C5D0B2E7A3EB010CDCF1F8
:102EF000000343EB0C03CBE71D1A6B426B41D1E798
:102F00009DF802509D42DFD00132032A04F10604ED
:102F1000B6D10D4800224921FFF7F6FC012098E7C1
:102F2000032A05D0094B0A49042A08BF0B46CFE7FC
:102F3000084BCDE7858E000003010303F1940000E8
:102F4000628E0000D08E0000F48E0000738E0000B0
:102F50006C8E0000678E000030B5394B0C465B6804
:102F600000218BB0C3F3080381F31188BFF36F8F87
:102F700002F07F45B5F17F4F08D102F00C05082D16
:102F800004D012F0080F0CBF014621460022033B7B
:102F90008DF80720032B03D8DFE803F00A474B44E2
:102FA00000209DF80730002B47D102A903F0E0F97B
:102FB000234BDA6A9007F3D4DA6A002AF0DBDA6A84
:102FC0005200EDD55A69886942F480725A61BFF3A4
:102FD0004F8FBFF36F8F5A6930F8020C22F4807262
:102FE0005A61BFF34F8FBFF36F8F4DF6027290425D
:102FF00008D09A6AD2B23AB101200DF10701FEF76A
:1030000097FACEE70868CCE79A6A12F47F4F05D0AA
:1030100001200DF10701FEF755FAC2E79B6AB3F5EF
:10302000803FBDD3FEF720FABBE700200DF107017A
:10303000E5E700200DF10701EDE70BB030BD00BF63
:1030400000ED00E010B572B6002484F31388FDF79C
:1030500029FB23464FF0FF300C4A03F120010133D6
:10306000102B42F82100F8D100234FF0FF30074A1F
:1030700003F160010133102B42F82100F8D162B650
:10308000BFF34F8FBFF36F8F10BD00BF00E100E0B3
:103090008FB5984A984B22F07F029A60BFF34F8F0A
:1030A000BFF36F8FD3F88820944822F47002C3F8DE
:1030B0008820934A0021121A04F041F99148924A5B
:1030C0009249121A04F05DF99148924A9249121AF3
:1030D00004F057F940F20F14002210B2012101321E
:1030E000FDF712FBA242F8D10020FDF7F1FF8B4B58
:1030F00003F5006282F3088883F30A88E0227E4B9E
:10310000874F83F822200022DA771A765A769A7649
:1031100083F82020596A41F4E021596283F8232082
:10312000596941F010015961596941F4806159614F
:10313000596921F008015961102119614FF0FF31DF
:103140009962D962D3F89010090A11F0FE0F29D0C4
:10315000BFF35F8F7349C3F89420C3F8C0100221F6
:103160007148C3F89820C3F89C10C3F8A000012050
:10317000C3F8980000F10050C3F89C0000F53B3004
:1031800000F2E230C3F8A0003970D3F89000C0F329
:103190000720814211DB0522C3F89420BFF34F8F33
:1031A000BFF36F8F61493C784D68002D00F081803E
:1031B0001F2D1ED86FF015047BE0C3F89810C3F8DC
:1031C000A0200131E1E72046C3F89880D3F89C2085
:1031D00025F01F0502F01F021543C3F89C5003F0B1
:1031E000E7F862E04E45EED15FFA88F003F0E0F8D0
:1031F0005FE0EA06DED10A68D306DBD1104603F0B1
:10320000CEF8154405F1FF398046484603F0C7F86B
:103210008045CFD118F1160FCCD0A045CADA364B75
:10322000C3F89880D3F89C00C3F89880D3F8A060C6
:1032300020F01F00824246F01F06D3D0013AC3F8A7
:10324000988022F01F00D3F8A0204E4502F01F0204
:1032500042EA0002C3F8A0202046C0D003F0A8F83C
:1032600010F1160FA6D0244B013EC3F89880D3F876
:103270009C109DF80820013061F304028DF80820AD
:10328000D3F8A030009525F01F052E445B08D2B27C
:10329000A6EB090663F3471226F01F066946C0B283
:1032A0008DF808200396FDF74FFA10F1160F81D024
:1032B000441C01203C70FDF70BFF0220FDF708FFC6
:1032C000002383F30B881A4C1A4DA4F5205686F37D
:1032D0000B8884F30988002004498847184619465A
:1032E0001A46A84702488047FEE70000F76D000035
:1032F000056E00000000000000ED00E078020020F4
:10330000682700208000002078020020009E000036
:103310004000002080000020C09D0000684F002079
:1033200065270020AAFF4400E14F1600308B000003
:10333000684F0020094E000008B50548FFF7E4FA81
:10334000002383F31188BFF36F8F0423184602DF35
:103350001A8F000008B501233C4A3D48C2F80038E6
:103360003C4AD2F840231C2A04BF3B4AC2F80C3422
:10337000FDF7FCFD0830FDF7F9FD0830FDF7F6FD1F
:103380000830FDF7F3FD00F5F470FDF7EFFD334A6B
:10339000D2F88C3043F44063C2F88C300022D30062
:1033A00003F57F0303F54043D3F8001401310AD03D
:1033B000D3F8001439B1D3F800140132D3F804342F
:1033C000402A0B60EBD1214BD3F84024002A38D09F
:1033D000FDF7BCFD48B11F4BD3F83423204B9A4274
:1033E0009EBF1A4B1F4AC3F84026FDF7AFFD18B128
:1033F0001D4B1E4AC3F8AC27FDF7A8FD48B1342287
:10340000124BC3F82426D3F83C2622F40022C3F83A
:103410003C26174B1149D3F80026D20744BF6FF062
:103420000102C3F800260323124AC2F81835D1F866
:103430008C3043F44063C1F88C300023C2F8A035CF
:1034400008BDC822C3F84024C2E700BF00001250E4
:1034500000C50D5000C0FF000030055000ED00E039
:10346000001D0A1840E0A91E00A0085078000A04B8
:1034700000E0105000B00450074A1368591C116056
:103480004BB9064A4820D2F8003443F00703C2F88B
:103490000034FDF719B97047200700200080045060
:1034A00010B5124B1C68013C1C60ECB94820FDF7BC
:1034B00019F907220E4BC3F80823D3F8002422F091
:1034C0000702C3F80024C3F80041D3F80021C3F871
:1034D0000441D3F804214FF48072C3F80841D3F8B3
:1034E0000831044BC3F8882110BD00BF200700201D
:1034F0000080045000E100E0302816D00DD81238CA
:10350000C0B2192806D801231C4A83401A408ABB3E
:10351000DB071ED46FF086007047412821D0422877
:10352000F8D1FF291FD1164B21E0B1F5A07F21D0A2
:1035300004D8E0291ED0B1F5807F04E0B1F5C07F4A
:1035400018D0B1F5007F0CBF6FF085006FF08600DA
:103550007047B1F5C07F0DD0EBD940F209239942F5
:10356000F1E7FF2902D0B1F5E07FECE7054B002041
:10357000136070476FF08500704700BF2002210282
:10358000B8770000AC77000010B51E4C4368B4EB70
:10359000132F4FEA132215D142691B4B9A420CD0CC
:1035A00003F5FF437D331344012B03D80388B3F5A0
:1035B000105F1DD06FF0860019E047F212130288E9
:1035C0009A42F6E7114B9A42F4D1028802F44F4333
:1035D000B3F5824F0ED1438844F212100733824272
:1035E0004FEAD30301D15B00013300200B6010BD13
:1035F0000223FAE7B2F5885FFAD143880733DB0884
:10360000F3E700BF004E800001C0FF7F4B4E8000FB
:1036100038B5044602F0A4FD25688DB94FF4127246
:103620002946201D03F08BFE084B284663600123CA
:1036300084F848328023C4F8C4310523236038BDA0
:10364000204603F001FC6FF08800F8E73C8B000097
:1036500008B5FDF7D1FD01230360104B0A6832B9AC
:10366000D3F80C211AB9D3F80821002AF6D00B6838
:103670007BB90B4B99420ED0A3F58473D3F8083174
:10368000002B0CBF4FF0FF306FF00200FDF7B4FDD0
:1036900008BD0020FAE74FF0FF30F7E70050045074
:1036A0000851045038B5064D0C46C5F800050549CB
:1036B0000548FFF7CDFF10B9D5F80835236038BDB0
:1036C00000500450105104500C50045040292DE972
:1036D000F04104460E462FD80378033303F003036A
:1036E000012B21D86FF0210003F0DFFA054640B925
:1036F00013493246204603F044FE4021104803F0AF
:1037000097FB2846BDE8F081637838462B44C8F81B
:103710000035FFF79DFF68B901352378C3F38203B5
:103720009D42F1D30020DFE70025DFF8188006492D
:10373000064FF2E70220D7E76FF08905E1E700BF07
:103740000000002000500450045104500450045064
:1037500010B50446012002F043F9064B0649C3F8B0
:1037600000450648FFF774FF0446002002F038F9D0
:10377000204610BD00500450085104500850045019
:1037800010B5F82003F08AFB18B9F92003F086FB86
:1037900010B16FF0920010BDF823094C09490A4896
:1037A000C4F80035FFF754FF0028F2D1F92306488A
:1037B000C4F80035FFF74CFF0028ECD0E9E700BF64
:1037C0000050045004510450045004502DE9F04FAF
:1037D000AA4CA1B062780DF1770323F01F03022AEF
:1037E0000193237801D1072B22D013F0010509D1D1
:1037F000DFF88C92A349D9F800208A421ED143F009
:103800000103237023789F0706D401219E4A43F0C9
:10381000020382F880152370627823781AB9DE07D4
:1038200044BF022262705D075CBF43F00403237053
:103830004FF0000A504621B0BDE8F08FFFF71CFEA4
:10384000924B01211D60924B48201D60914AFCF76C
:103850005BFF914B914952F8040B43F8040B8B42E8
:10386000F9D100238E4DEB668E4B2B6003F5C043E0
:103870006B602B6D0BB9FDF767FD6B6D1C22B3F50B
:10388000007FCCBF4FF480634FF40073002103A886
:10389000AB6003F054FDF82003F000FB28B9F920D9
:1038A00003F0FCFA002800F0DB807F4DD5E90C32F4
:1038B00013432AD0D5E90C32023342F10002B2F5AB
:1038C000803F7ED220260DF1280B102EB0464FF0FF
:1038D000010228BF4FF010081027744911F8010D9C
:1038E000013F02440A704FEA1222F7D1019801F019
:1038F0007FFF824670BB002E7CD1D5E90C210132BE
:1039000041F10001C5E90C21DFE7AA6B684B9A423F
:10391000D8D000231A46EA540133402BFBD10AAE1B
:10392000304601F0B5FE80B93046FEF7A5FF00280D
:1039300045D103460246F2540133302BFBD100231C
:103940000122C5E90C235A4BAB6303F0AEF9824662
:103950000028AFD0FFF7A4FD2378580743F00101FA
:1039600044BF23F0040343F001012170890719D5F6
:10397000454D00262F464FF001094FF00308284619
:10398000C5F8209085F81C80013603F00CF8202E35
:1039900005F12C05F3D1002387F88035237823F037
:1039A000020323700023042142486370FDF7F6FBF5
:1039B0002378DA0744BF23F0010323703AE70E208F
:1039C000C3E70AAE304601F063FE80B93046FEF729
:1039D00053FF82460028BDD102460346B35401324C
:1039E000302AFBD100220023C5E90C236AE76FF0DF
:1039F000920AAFE742465846019903F0C2FCD5E966
:103A00000C21013241F10001B6EB0806C5E90C2199
:103A1000C3447FF45AAF3846FEF72EFF8246002893
:103A200098D14FF4807302A8029302F011FC029B1C
:103A3000DFF884E00593214BF8210693204B0AAA76
:103A4000CDE903E31F4B03A8089301F0D3FF82469F
:103A500020210AA803F0ECF9BAF1000F7FF47AAF45
:103A6000FFF78EFE8246FFF71BFDBAF1000F7FF4D1
:103A700073AF044BC9F800302378C0E6180D00205E
:103A8000000200201173650094070020E40200206A
:103A9000E0020020C477000000C080511CD3805198
:103AA000240700200020805178020020A802002076
:103AB000B4A5B4A51C0D0020002400010010C00412
:103AC000014B4E80F800FF7F70B588B001AE182220
:103AD00005460C463046002103F031FC012044EA43
:103AE00005240794059001F07BFFBA2309480A4991
:103AF000C0F80035C0F80465FFF7AAFD04460020B1
:103B000001F06EFF002C0CBF20466FF0920008B051
:103B100070BD00BF00500450005104502DE9F34720
:103B20000E46DDE90A79694682461446984603F056
:103B30009AF9002852D1BAF1F80346F1FF36022B68
:103B400076F10006C0F0B68003F0C1F9002845D137
:103B50009DF8006016F00F0240F0AF80BDF8023013
:103B6000C3F3C113013BDBB2022B00F2A9805A4917
:103B700006F03006C95C594B102E43EA010363601E
:103B80002FD1574B2360204601A9FFF7FDFC28BB2E
:103B9000019BBB4200F29D8044F2121221889142A7
:103BA00004BF042208F8012BC9F800309DF800304A
:103BB00098F80020C3F3011363F3010288F8002092
:103BC0009DF8022008BF07F1FF37C2F30212042A52
:103BD00049D8012A4BD851D06FF0980002B0BDE807
:103BE000F0879DF80310134610463E4A4908F9B97C
:103BF000019001A802F02CFB9DF80230019A03F01D
:103C00000F010A29A26061D147F2421112F4A05FAC
:103C100044F2421218BF0A46C3F302132280324A0A
:103C2000013BE260032B0FD8DFE803F00C16181AF3
:103C3000CD0704D5062B46D852F82350284349080F
:103C40000133D4E7802363809DF8003013F0300FF8
:103C500099D16FF09600C1E7C023F4E7FF23F2E7A4
:103C60004FF48073EFE7052AB6D1032206E044F251
:103C7000121322889A4214BF02220422202E00D15D
:103C8000023298F8003088F801A062F3840388F8C3
:103C90000030238803F44F42B2F5824F06D13946F3
:103CA000404602B0BDE8F047FFF710BDB3F5885FAE
:103CB00094D1F4E76FF0860090E76FF088008DE70D
:103CC0006FF091008AE76FF0830087E76FF0920052
:103CD00084E76FF0890081E703950000004B4E8078
:103CE00001108001907700000008000600232DE9F4
:103CF000F0417F4D0B6095F8802507460E468CB04D
:103D0000002A00F0EF8000F140421F2A66D82C23E1
:103D100003FB02552B7F022B55D031460020FDF7C7
:103D200019FD0446002870D10122336801465F6105
:103D3000336805A85A6035681C2203F000FB6F69E0
:103D40006C4A07F14043A3F580539342CDE9024406
:103D500000F2BF80684B9F425BD001339F4258D036
:103D6000023B9F4255D0FFB2384604A903F07BF8CE
:103D70000446002840F08580BDF81230C3F3C1131B
:103D8000013BDBB2022B00F29E805C4AD25C5C4BB2
:103D900013436A690693DBB20A9203B90A900023BF
:103DA000CDE900443846194605AAFFF7B7FE10F1E1
:103DB0008A0F044635D03068002C62D102F0F3FD42
:103DC0006FF096042AE06B699842A6D1284602F06B
:103DD0003DFD0446B0B93560002416E0002840F3EC
:103DE00084802A46117F022902D151698F4205D071
:103DF0000133202B02F12C02F4D18EE72C2202FB9E
:103E00000355E3E710F18C0F87D020460CB0BDE8D6
:103E1000F081306802F0C7FD6FF085040023336045
:103E2000F3E7069B374A4FEA1328B2EB132F02D071
:103E3000354B984547D102A905A8FFF7A5FB0446D5
:103E4000F8B928460299FDF7C1F90446C8B9D5E981
:103E500009322C49884502D04B31884518D103A935
:103E6000CDE900213846002105AAFFF757FE044698
:103E700088B1686A10B1A96AFDF79AF90023C5E90B
:103E80000933306802F08FFD14F18C0FC6D123E0A6
:103E90006FF08B04EDE7039B05ACAB620FCC0FC555
:103EA00094E8070085E807003068083002F0D0F990
:103EB00033681A7F012A12D0306802F0C7FC04462A
:103EC000002889D0AAE7306802F06DFD6FF0860403
:103ED000A4E7284602F067FD6FF087049EE7022200
:103EE0001A77E9E76FF088048FE76FF087048CE7B3
:103EF00094070020FFDFFF3F02C0FF7F0395000013
:103F0000004B4E80004E80004B4E800038B52B4B4E
:103F10001B7843B12A4B1A68002A41D01A681968E5
:103F20000021196032B9BFF35F8F4FF0A3439A6A43
:103F3000BFF35F8FBFF35F8F4FF0A344E36BBFF31B
:103F40005F8F12F0240F03F023032BD0BFF35F8F9A
:103F5000E569BFF35F8FBFF35F8F10236363BFF328
:103F60005F8F184B1868184BB0FBF3F0174B43F0FA
:103F700001039847BFF35F8F00236363BFF35F8F35
:103F8000BFF35F8FE36BBFF35F8F5B06F8D425B1A0
:103F9000BFF35F8FE561BFF35F8F6FF01F0038BD28
:103FA00020BFB8E74FF0FF30002BF8D1BFF35F8F91
:103FB0002063BFF35F8F1846F1E700BF642700203E
:103FC000E40200202C02002040420F009075000007
:103FD000BFF35F8F094A1368BFF35F8F43F48071AB
:103FE000BFF35F8F1160BFF35F8F23F48073BFF364
:103FF0005F8F1360BFF35F8F704700BF0010805169
:10400000BFF35F8F4FF0A3430022DA61BFF35F8FEE
:10401000BFF35F8F4FF0FF321A63BFF35F8FBFF3C1
:104020005F8F3422DA61BFF35F8F0122014BC3F847
:104030000423704700800450B1F5DE7F38B5044694
:1040400024D303681D6815F0400522D1FFF714FA48
:1040500001212176FFF7D4FF0F4B284663602368C8
:104060000E4A1B68C4E90355A36204F12C032362C2
:1040700004F128036362E3671323C4E9212304F1F5
:104080008C03E361064BA160636138BD6FF02200D1
:10409000FBE76FF00200F8E78077000004000020E3
:1040A0001D1200000368DA68D203FCD4DB682448E0
:1040B0001840B0F5806F2FD017D840282ED008D8E0
:1040C00010282DD020282DD0003818BF0120400006
:1040D0007047B0F5807F27D0B0F5007F26D08028CC
:1040E00008BF0B2018BF02207047B0F5804F1FD0CB
:1040F0000AD8B0F5805F1DD0B0F5005F1CD0B0F5D8
:10410000006F08BF0620EDE7B0F5004F16D0B0F500
:10411000803F08BF0320E5E7112070470A20704761
:104120000C2070470920704708207047072070470F
:104130001420704705207047042070470F207047F7
:10414000F0FF010038B5114D0446C5E90415FFF72D
:1041500093F9042200210E4BC3F804230D4A2B6867
:10416000D868C0030AD403F580535B6A13F4A02314
:1041700004D1C4E90053204638BD20BF1368002B8A
:10418000FBD0136813681160E9E700BF2407002023
:1041900000800450E00200200422054B10B5C3F853
:1041A00008230446FFF77CF900232361A36410BDB4
:1041B000008004502DE9F04F90469B464269036908
:1041C000D0F84CA09D680446D0E901730E46D2F8A1
:1041D0006C9085B0BAF1000F06D0FFF7DDFF102517
:1041E000284605B0BDE8F08F4F490A6D22B901930A
:1041F000FDF7AAF84C49019B326810064CBFCA6D06
:104200004A6D7068904204DD2046FFF7C5FF0D251A
:10421000E6E72269E060B9F1000F02D0116948EACF
:104220000108316812680138114341EA002122680F
:1042300041EA0801516022691268D10002D5E268A2
:104240009A1A17449DBB336813F4700F3AD0B9F132
:10425000000FC5D023691B69002BC1D0D9F80830E5
:1042600048469847D4E90167CDE902012369E2682D
:104270001B6806EB071613F0805F42D0C1F307619D
:1042800000F03F0341F0010143F020038DF80F10CF
:10429000B01AA2F108018DF8083002F0B9FB083E0F
:1042A000082230460DEB020102F08AFF98E7EA0788
:1042B00048BF4BF82A704FEA650548BF0AF1010A6A
:1042C0001F44BFE72369D6F808801B68D4E9017B47
:1042D000DB0042BF7368ABEB0303FF18B8F1000FBC
:1042E000B5D04FF0000ABAF1060FB0D041463846BB
:1042F000726802F065FF73685F4498440AF1010A2E
:10430000F1E7C1F3056141F02001F61B40F0010324
:104310008DF80F1006F10800A2F108018DF80830A1
:1043200002F076FBBCE700BF240700202DE9F04F28
:1043300080460024ADF55F7D02AF07F5927079628B
:10434000FFF766F9B8F80830B8F80A20D8F80C601A
:104350001344DFF8FC911E44A64200F2BA8007F134
:10436000A40107F5927002F037FE07F5927002F093
:104370006BFD7B6A002B00F0BD80D8F80C30B8F8DC
:104380000840786A1C442146042307F5927201F024
:10439000B0FFF860002840F0AD8046F60812B7F88C
:1043A0002411B8F80A30914240F0B480B7F82611D1
:1043B000994240F09F800423786A07F59272214465
:1043C00001F097FF002840F0958046F60713B7F8F4
:1043D00024219A4240F08E80B8F80A305D48234488
:1043E000BB61BA69B7F82631C16D1344BB60436A3B
:1043F0005A684FF4407303FB012153424F31194077
:10440000836A406D013B534342435B1A521A934205
:1044100028BF1346BA689A426CD84FF0FF35231D67
:104420002C463B62BB683A6A934240F26E84B8F80D
:104430000A3023B1BB69934204BF04333B620423B7
:10444000D7E9081007F5927201F053FF002851D107
:104450003A6AB7F82431111DBA69B7F826618A4261
:1044600008D84FF6FF7C3C4830F8022B624541D01B
:104470009A42F9D1122B51D0242B71D0012B62D149
:10448000402E37D83346786A07F1640201F031FFD5
:1044900080BB07F59270FFF7BBF82C222F4907F578
:1044A000927002F0D4FD07F1E40107F5927002F07A
:1044B00093FD07F5927002F0C7FC324607F16401E4
:1044C00007F1E40002F06AFF051E18BF01256D42E6
:1044D00039E0351BB5F5807F28BF4FF480754A461B
:1044E0002B462146786A01F004FF58B107F5927017
:1044F00002F0AAFC4FF0FF34204607F55D77BD4679
:10450000BDE8F08F2A46494607F5927002F09FFDFC
:104510002C4421E7002B3FF458AFEBE7402EE9D1C4
:104520003346786A07F1640201F0E3FE0028E1D126
:10453000324607F1640107F1A40002F02FFF0028C2
:10454000D8D10123FB603B6A043633443B6269E700
:10455000641E0020201D0020F08C000056930000F7
:10456000002DF0D1402EC5D13346786A07F16402A0
:1045700001F0BFFE0028BDD16A493023F96207F17E
:1045800038022C3107F12C0001F04EFE00287CD1BE
:10459000FA6ABB6B07F12C0002EB030A5146302389
:1045A00007F1480201F040FE00286ED1FB6AAAEB39
:1045B0000302002A69DD1A7807F12C00C7F8E4200D
:1045C000BA6C03EB02094946062307F1E80201F041
:1045D0002BFE002859D1FC6AD7F8E850C7F8EC4008
:1045E00063199945FB623AD10C2107F59270FCF7EB
:1045F000D5FD032D49D12A4620464B4902F0CEFE77
:10460000002842D12B46514607F1380207F12C0011
:1046100001F00AFE002838D1BB6BB3B3FC6A03F18A
:10462000FF3BC7F838B0217879BB234404F1010976
:104630009A45C7F82C9028D1BBF1200F25D11C2218
:1046400007F14800F96102F07AFEFFF7BFF8F96957
:104650000246F8B145213548FEF756F915E0625D8E
:104660000133C7F82421494607F5947207F12C005D
:10467000FB6201F08DFD40B9FB6AD7F82821C7F82D
:104680002C3113449945FB62B3D04FF0FF344FF007
:10469000FF3558E744F24213A7F848304FF400635F
:1046A00007F59270C7F82431F96101F0D1FD204B74
:1046B0000068F9697B65B7F84A303865B963C7F8AF
:1046C000E4B013B1FF2B40F03B8104F1200214F859
:1046D00001CFA24241EA0C01F9D1002900F030815A
:1046E00097F84CA0FA6DBAF1000F05D0BAF1FF0FA0
:1046F00022D16FF086020CE020F0031020F47F40FE
:104700001043F6D14FF6F872934240F2D5806FF025
:104710008502B86B18B1FA6102F045F9FA694521D2
:10472000044899E756930000ED940000238F0000A1
:1047300000080006438F0000002ADADD20F0031095
:1047400020F47F400028D4D14FF6F8729342DED88F
:1047500007F13801FCF7FEFF3861002840F0AF8018
:10476000BC6B07F1480EA446BEE80F00ACE80F0092
:104770009EE807008CE80700BAF1000F02D1D7F8D5
:1047800024316361A26AFB6C002A00F09A80224601
:10479000F86CDFF8B8C2D4F824B0BCEB102F52F894
:1047A000283F4FEA102100F0B580A948814200F06F
:1047B000B18000299DD107F5927ACDE9002A4946BA
:1047C0005A4607F1480001F02DFA10F1860F024613
:1047D00040F0AB80B7F8483003F4E042B2F5805FB8
:1047E00095D14FF48072C7F8242141F206229342FA
:1047F0008DD8B3F5905F80F0838041F2010293423F
:1048000002D0B3F5885F82D109F1200359F8042B57
:1048100099454BF8042BF9D12023A3626288D7F87D
:104820002431002A40F0858063804FF6F87293426D
:104830003FF66DAFB7F848301BB122889A427FF43B
:1048400058AFB7F84A301BB162889A427FF451AF33
:1048500063697B61237F012B6FD102237869237702
:1048600007F13001FFF742FA044600286BD02246D8
:1048700045217848FEF748F87B69002B3FF405AFE7
:10488000786907F1E401FFF731FA814670B9D7F88A
:10489000E4B09BF81C30022B00F0AE81584602F0C9
:1048A000A2F8002840F0EF816FF096094A465721A0
:1048B0006948FEF729F8BBE107F5927048E73A69C5
:1048C00027E71B0A09D12046D7F8E410FCF77EFC45
:1048D000024600283FF45BAF1BE7C7F8E4205B4AC1
:1048E000934203D04B3293427FF403AF07F1E401CC
:1048F00007F14800FEF748FE02460028E3D008E72B
:104900006922A3F590539BB222FA03F3D9077FF5EE
:10491000FEAE79E707F59271CDE9002107F1480075
:104920005A46494601F07EF90246002A3FF476AF26
:10493000EFE693427FF4DDAE77E76FF09602E8E6AC
:104940006FF08602EBE6D7F830A0DAF80830BAF854
:1049500000B01A050BD55846DAF80C1001F038F8FB
:1049600058B95846DAF8101001F032F828B9504614
:1049700002F039F86FF0840479E7DAF8041033486C
:10498000DAE90932B0EB112F7A604FEA11290CD025
:104990002F49894509D0B9F1000F06D0504602F0E1
:1049A00022F86FF0850B5C4661E70BF44F41B1F5DF
:1049B000824F46D12BF0FF04B4F5824FC7F81CD0CC
:1049C00002D0B4F5E24F3CD15FFA8BF04228BAF83E
:1049D00002102DD101F10802D208073222F007029D
:1049E000ADEB020D00227A6307F134023B60FEF763
:1049F00083FD0DF1080A8346002840F0D080134A59
:104A00003B6891451BD0B4F5824F27D119465046DB
:104A10007A6802F0B6FC7B6B5B68202B00F0C980E3
:104A2000D7F81CD0386B01F0DEFF6FF0940BBAE7BB
:104A3000CA1D41284FEAD20205D1002ACDD1D7F8AC
:104A40001CD0386BABE752000132C6E7004E800045
:104A50004B4E8000658F0000938F0000BB632023C6
:104A600007F1E40BFB6307F13C020123CDF800B032
:104A700007F1380107F5927000F012FF0446002894
:104A800040F086809BF8003007F2231123F00703E3
:104A90008BF800309BF81F3003F07F0343F0400396
:104AA0008BF81F301F23CA1A013B1470FBD29A499E
:104AB00007F14000FFF746FBD7E91094002C67D1BF
:104AC00022464846954907F59273FFF773FB044663
:104AD00000285DD120225946D7F8240102F070FB4E
:104AE0002022D7F8280107F5827102F069FB4846B9
:104AF00002F074FBFFF7D6FAD9F810300446D9E972
:104B0000012059681B68DB0003D5D9F80C30C31AA3
:104B10001A4400230DE011F0010F08D00B2B01D92E
:104B200002F005FC03F1060C49F82C200133024485
:104B300049100029EFD1D9E906E307F5827C03F19A
:104B4000200B624618685968083303C25B459446D7
:104B5000F7D19EF8002097F82331484643EAC21364
:104B600087F82331FFF718FB94B9524607F5827C8A
:104B700007F5927E634603CB7345106051609C46F7
:104B800002F10802F6D1402107F1E40002F050F9E9
:104B9000204602F08AF8834600283FF43CAF1BF120
:104BA000860FD7F81CD03FF44CAF386B01F01BFFD9
:104BB000F9E6402207F16403504607F1A40100F032
:104BC00099FE02F072F810F1860F8346D7F81CD0D8
:104BD0003FF437AF386B01F006FF0446BBF1000F1E
:104BE0007FF4E1AE00287FF442AE7B69002B3FF4F6
:104BF0004EAD01233B6143E60323DBF804108BF841
:104C00001C30CAB2FF2A06D1584601F0ECFED0BBD8
:104C10006FF084094AE6DBF81440414804F1404350
:104C2000A3F58053834206D9584601F0DCFE50BB01
:104C30003B695C1E2BE53B4BB3EB112F06D058466E
:104C400001F0D1FEF8B96FF085092FE6032ADBD019
:104C5000E4B2204607F5927102F005F9814660B989
:104C600097F82631D7F82421C3F30213042B0CD86C
:104C7000012B3CD844D06FF09809584601F0B3FEA0
:104C800000283FF413AE814610E6052BF3D102F065
:104C90003003202B00D102354FF00009DFF888A047
:104CA000224909EB04022248CAF80025FEF7D0FC8D
:104CB00040BB09F101094D45F3D1FEF761FD18B97B
:104CC00040211C4802F0B4F849462046FEF7FCFE9D
:104CD00081460028D1D102F0FAF88146584601F009
:104CE00082FE0028CFD1B9F1000FA1D0DEE544F259
:104CF0001213BBF800509D4214BF02250425C6E7DD
:104D00000125C4E76FF08409E8E7FB68002B7FF416
:104D1000F3ABFFF7EFBB00BFC8750000B87700002A
:104D2000FFDFFF3F4B4E8000005004500451045001
:104D300004500450000000202DE9F8432C2747437D
:104D4000DFF8AC80064608EB0704256A89460DB9F2
:104D500002F0EDFA04222146284601F058FC10B971
:104D60002069C3061BD5BEB12846FCF74BFC99F859
:104D70000730042B0CD1D8F820000028E8D0FCF72D
:104D800041FC024640B949211A48FDF7BDFD03E048
:104D9000FEF756F80428EED00120BDE8F883216A1A
:104DA0000029D5D058F80720134B9A4204D0BEB939
:104DB000124A45211248E8E7E26823899B18F6D297
:104DC0006289D218F3D28B689A42F0D240F60C6313
:104DD0001842ECD12046FFF7A9FA00B9DDE7E6E773
:104DE0000023AA681946284601F09EFD054AE0E71F
:104DF000201D0020C38F00003DB8F396B18F000046
:104E000002900000B98F000001262DE98048A14BD7
:104E10008FB003201E70FCF75BF99F48FDF774FD0F
:104E20009E48FDF771FD9E48FDF76EFD0420FCF7DE
:104E30004FF949219B48FDF767FD9B4C60220021FB
:104E4000204602F07CFA042004F12001FDF7DAFF8D
:104E5000002840F0D880072004F14C01FDF7D2FF74
:104E6000002840F0D0804FF48075904A042002F56D
:104E700000630AA9626223650A9502F00DFA18B36D
:104E80002A4657218A48FDF73FFD012384F8583010
:104E90008DF82F3094F85830FF2B00F0AF810021AF
:104EA000012B089140F0178200210846FFF744FFCC
:104EB0008246002840F01582089B01330893089E23
:104EC000012E00F01382FEE70A9B0720226D0AA93B
:104ED000A3620A9502F0E0F978B12A465721744896
:104EE000FDF712FD84F8586000210846FDF718FF11
:104EF00058B1002257216F48C5E70A9B6365236AB2
:104F0000D86801F0B2F9E065EEE7A66A656DAE42D9
:104F100007D06B1C9E4204D057216748FDF7F4FC74
:104F2000B3E7B6F5807F70D800231F46626A216D13
:104F3000043204319D426BD1236AD86801F095F99F
:104F4000E36CD86801F091F9AE4205D9636A03EBCE
:104F5000C5035B68BB4261D101230A9303F10123BE
:104F60000B930023206A06A9CDE90C33FCF7EAFF76
:104F7000002848D19DF81820012A54D04F4B5049A1
:104F8000032A08BF0B469DF81B20492102929DF879
:104F90001A204C4801929DF8192000924A4AFDF7C8
:104FA000B3FCE06C08A9FCF7CDFF814658BB9DF827
:104FB0002020012A39D0414B4149032A08BF0B4622
:104FC0009DF82320492102929DF822203D4801921C
:104FD0009DF8212000923D4AFDF796FC9DF818307F
:104FE000012B24D19DF81A30032B20D19DF82030BD
:104FF000012B1CD049213648FDF786FC0223266A86
:105000000D93002E6ED102F092F95721314885E7B9
:1050100052F8337051F83300874202D057212E489E
:105020007CE7013386E72D4BADE72C4BC8E74921E0
:105030002B48FDF769FC00230D930AA801F09BF8AB
:1050400080F001000AA9C0B2FDF76AFE00287FF4D3
:1050500050AF0AA801F08FF8002840F0E1800AA8BC
:10506000FDF78AFC0028CED19DF82F30DA1E012AE8
:1050700084F8583000F2C78001F087FE9DF82F3089
:10508000002840F0AD80023B022B40F2AF8094F844
:105090005830BBE0642700202A9000005B9000009D
:1050A0008E900000BC900000201D0020200D0020EC
:1050B000D59000001791000043910000558D00002D
:1050C0004F8D0000F28D0000D6910000E28D0000AF
:1050D000E49100007B910000AA9100004A8D00003D
:1050E000039200003378042B01D0072B74D1F068B1
:1050F0004FF44078E56D01F0B8F808FB00F0B768B0
:1051000050308742FFF47FAF40F2FF235FFA85FA09
:1051100003FB0A774FF0FF3501233F1A9B463946C0
:105120000123304608AACDF8108001F0E2F8031EF2
:1051300008F1FF3805934FDB0122304608A901F042
:1051400066FA059BA0B35B4501D009F10109A7EB05
:105150000A07B8F1000FE1D1B9F1010F03DD4521D4
:10516000B448FDF7D1FB6A1C07D0FF2D26DC40F2C6
:10517000011301350A95ADF82C30B16801232039AF
:1051800021F00F01304608AA203901F0B2F818BB0F
:105190000122304608A901F03AFA10B101238DF836
:1051A00020309DF8203003F00F038DF82F3044E7B6
:1051B000049AB5F1FF3F08BF1546C8E70223A5F5DD
:1051C00080758DF82D306B1005F001050133013528
:1051D0000A938DF82C50D0E700225721964852E6CA
:1051E000FF22023B022B84F8582007D801F0E5FD8E
:1051F00000283FF44CAFFF2384F8583045218F48F6
:10520000FDF782FBFFE69A1E022AEFD9FF2BF5D0AD
:1052100000210846FDF784FD00283FF436AEF2E693
:105220009DF82F60012E28D1FDF70AFE831E022B68
:10523000054611D830460AA9FFF77EFDB0B9E8B29D
:1052400084F858008DF82F00012829D83FF422AEA9
:10525000FF2384F858301DE6C0B2042884F85800B3
:105260008DF82F00F0D9052811D0F1E7012809D1D8
:1052700084F858008DF82F000CE601200AA9FFF7EA
:105280005BFD50B1052384F858308DF82F3001F0C4
:105290007CFD00283FF4FEADDAE79DF82F00DCE747
:1052A0000AA8FDF769FB00287FF4ADAE94F85830EA
:1052B000DA1E012A0BD801F068FD20B901F07DFD4E
:1052C00000283FF4E7ADFF2384F858309BE6022B1B
:1052D0007FF4E0ADF2E70846FDF722FD00283FF439
:1052E000E3AD45215648FDF70FFBFEE7236A5D68F5
:1052F00049212A465348FDF707FBE38A49210093D9
:10530000637D227D5048FDF7FFFA49214F48FDF7A4
:10531000FBFA4F4BD3F874250F2A04D045214D4892
:10532000FDF7F2FAFEE7D3F86C250F2AF6D102F565
:10533000F91202F6F672C3F868A5C3F86C254FF4AB
:10534000F842C3F87025444AC3F874254348FBF774
:105350001FFADFF80C81228967232A44D8F8045009
:105360005446ED433F4FDFF800913A6005F0670582
:10537000C9F82833002D40F08580E420FBF7B2F90E
:10538000394BD3F8482722F00102C3F84827D3F855
:10539000102522F00102C3F81025D3F8102522F0C1
:1053A0000202C3F8102501225A669A6688F8005056
:1053B000EFF31182202383F31288BFF36F8F2B4802
:1053C000818E01F0070102297DD1C38E013B9BB282
:1053D000C386002B77D11C30FBF756F8244B254AA7
:1053E0001B684FF47A70B3FBF2F35843224B00244E
:1053F00043F0010398476723DFF86C90DFF87CB037
:10540000DFF87CA0C9F828330126A64016F0670F04
:10541000E1B25DD0D8F80430DB4303F067033342D8
:1054200040F0BB800846FBF747FE584601F01FF9E5
:1054300051E000BF1A9200003D9200006792000008
:10544000E592000073920000A2920000C09200005A
:1054500000B00450089300000530190020A1070097
:1054600080000020801D002000200E50C01D002064
:105470002C02002040420F00A07500008400002094
:1054800000210E50D8F80830E1B206FA01FB0BEA11
:10549000030313F0670F13D00846FBF70DFED8F88F
:1054A0000430DB4303F0670313EA0B0F08D009EB6A
:1054B0000113C3F82CA5EB0702D5474801F0D7F834
:1054C0006D08013456E782F31188BFF36F8F85E7CB
:1054D0000846FBF7F1FD0134072C95D14FF0FF385A
:1054E00000244FF001093D4EE420FBF7FBF8C6F81D
:1054F0000883C620FBF7F6F8C6F82C90C6F8504192
:10550000D6F85031C6F84C41D6F84C31C6F8244193
:10551000D6F82431C6F8004506F578364FF4827087
:10552000C6F80883FBF7DEF8C6F82C90C6F85041A1
:10553000D6F85031C6F84C41D6F84C31C6F8244163
:10554000D6F82431264BC6F80045C3F80883BFF3CC
:105550006F8F72B6234B04F120020134102C43F8F4
:105560002280F8D14FF0FF3105F160020135102D96
:1055700043F82210F8D100241B4BC3F80444FBF776
:1055800091F884F30B8884F30A88184B386898479D
:1055900045211748FDF7B8F9FEE7D8F80830334041
:1055A00013F0670F3FF43EAF0846FBF785FD00227E
:1055B00009EB0413C3F82C25D9F820331E423FF41D
:1055C00031AFC9F828635AF82430002B3FF42AAFD2
:1055D0004AF8242026E700BF8400002000600C5019
:1055E00000E0105000E100E0002008E04100002051
:1055F0003B930000F0B50388C76803F44F42B2F54F
:10560000824F08BF1D4603F4E0441F4B18BF00251E
:1056100000201A46EDB21E78AE4223D1D3E9026CC7
:10562000D1F800E0B4F5804F08BF6646BEF1000F28
:105630000BD1202E09D1142303FB002253680B60E9
:10564000137CABB96FF08500F0BDD3F804C0E6451C
:1056500008D1202E02D06FF08600F5E7142303FB5B
:105660000022EDE70130132803F11403D3D1F2E750
:10567000422D06D1054B9F4203D003F20B139F42EC
:10568000E9D10020E0E700BF708B000000080006B1
:105690002DE9F04107463025514CDFF84881202D97
:1056A0002E46A8BF2026FDF7E7FEFEF791FCBFF3CC
:1056B0005F8FE368BFF35F8F9B08013BBFF35F8F92
:1056C000A360BFF35F8FBFF35F8F00232364BFF33B
:1056D0005F8FBFF35F8FF1226264BFF35F8FBFF311
:1056E0005F8F4FF400726263BFF35F8FBFF35F8F12
:1056F000C4F80080BFF35F8F07E0FDF7D1FE6FF0C5
:105700003F052846BDE8F0810123BFF35F8F226B80
:10571000BFF35F8F5108C2F34202052A5CD011F03B
:10572000060FF2D023BBBFF35F8F6268BFF35F8FBA
:10573000032AEAD92C4B2D4ABFF35F8FD4F880108F
:10574000BFF35F8FBFF35F8F43F8041BBFF35F8F1F
:105750009342F1D1FEF73CFCBFF35F8F2368BFF3A8
:105760005F8F43F00103BFF35F8F2360BFF35F8F51
:105770003246BFF35F8FA368BFF35F8F0133B6EB91
:10578000031FBAD8BFF35F8F6368BFF35F8FB6EBB9
:10579000830FB9D8BFF35F8FD4F88030BFF35F8F2A
:1057A0003946081D01F8013B81424FEA132302F1FB
:1057B000FF3208D0002AF5D1FDF772FEAD1B374449
:1057C0007FF46DAF9DE7002AF6D0BFF35F8FD4F86A
:1057D0008030BFF35F8FE4E7FDF762FE63E700BF51
:1057E00000108051010004001010805120108051E1
:1057F0004FF4807313B504460193FDF73DFEFEF7A9
:10580000FFFB214B01AA1A60112220492048C3E95D
:10581000021240F6110103F110025A601D4AC3E959
:1058200006011A6120321A62212203F12001596116
:10583000012119485962C3E90A02184AC2E9011054
:1058400020211460D160BFF35F8F4FF0A3410B6044
:10585000BFF35F8FBFF35F8F0A61BFF35F8FBFF34B
:105860005F8F03234B63BFF35F8FBFF35F8F8B6348
:10587000BFF35F8FFEF74AFB431C0446FAD0FDF7E7
:105880000FFE204602B010BD2C1E00200400002098
:105890002000002078020020100000201C1E0020A4
:1058A0002DE9F0411E46124B0C4603604FF4DE71A9
:1058B00005469046069FFEF7BFFBB8B9A8F104085D
:1058C00004EB8606284658F8042F54F8041B01F010
:1058D00021FB58B9B442F5D13946284601F049FBBD
:1058E00020B92846BDE8F04101F05EBBBDE8F0817B
:1058F0003C8B00002DE9F0431D46324BADF50D7D8C
:10590000CDE90701CDE90535222120230DF1340829
:10591000CDE90913CDE90B3207460323CDF800800A
:105920000AAA06A91DA8FFF7BBFF0446002844D118
:10593000FE7FEB7FF609DB0923494FEA467603A891
:1059400018BF46F08046FEF7FDFBDDE90394A4BBDB
:10595000324648461D491DABFEF72CFC044660BB91
:10596000202241461D9801F02BFC20221E9815A9EB
:1059700001F026FC1F9C20222046394601F020FC25
:105980002022FB7FA91803F07F03E377209801F022
:1059900017FC219C20222946204601F011FCEB7FB8
:1059A000484603F07F03E37701F018FC4846FEF712
:1059B00079FB04464846FEF7EFFB20460DF50D7DCA
:1059C000BDE8F083440200205C8B0000B877000043
:1059D00002480B1A58425841704700BF00080006A1
:1059E000034BC3F80005D3F80024D207FBD570475A
:1059F00000B004502DE9F04788B004460D46164625
:105A000001F065FA78B963690090C3F3013262F37B
:105A100005108DF8000010F0300007D1A16889074B
:105A20000FD06FF0860008B0BDE8F087102808D1CD
:105A3000BDF8023023F4F87343F4A873ADF80230D4
:105A40006DE0E76871498F4247D1238803F44F41E5
:105A5000B1F5824F44D1D9B2422941D1A16811F4A4
:105A6000A05F04D123F0FF03B3F5E24F38D00A2141
:105A70009DF8023061F303038DF8023000234FF0EC
:105A8000010A9E4619461F46D4F808C0DFF88081F7
:105A900058F8049B1CEA090F08D00AFA07F343EAF6
:105AA0000E0303F07F0E012341EA09010137072F9E
:105AB000EED12BB19DF803306EF347038DF8033020
:105AC0003CEA01010CD16388FF2B11D00BD8802B4D
:105AD0002BD0C02B04D102230BE0DBB2F82BCDD0AE
:105AE0006FF085009FE7B3F5807FF9D1042300E0D4
:105AF00003239DF8021063F306118DF8021010B90C
:105B00001CF0030F8DD12379022B1BD00FD8012B52
:105B100087D1BDF8021063F3C811ADF80210B2B11D
:105B2000032A7FF47EAF3B4F16E00123E1E7032B0E
:105B300002D0FF2B7FF475AF0221BDF8023061F374
:105B4000C8137BE7BDF8023043F4C07376E72388BF
:105B5000B3F5105FC4D1304F284601F09FF910B95A
:105B60006FF08A005FE7681C01F098F90028F7D011
:105B700002212846FDF7A8FF00287FF454AF009BC0
:105B8000044607930346DFF89490DFF894A0069745
:105B90000DF10408C446BDF802203344C2F3C1121B
:105BA000059203F1100E624618685968083303C263
:105BB00073459446F7D101206119FFF711FFC9F829
:105BC000001516485146C9F80485FDF741FD014608
:105BD0000020FFF705FF21B101F079F96FF0920085
:105BE00021E71C21404601F023F944B907F11003D5
:105BF00006934FF0FF33012407931023CAE7BA201E
:105C0000FDF7A6FD00283FF40EAFE7E70008000609
:105C100090770000000000204000815100500450A7
:105C2000005104502DE9F04F0D46002195B0DDE9FB
:105C30001E781646814602889B46C8F800103960D7
:105C4000002B69D04168484C0B0AB4EB112F24D1CA
:105C500002A9D0F814A0FDF797FC0446C8B9029B2E
:105C60009B457AD35FFA8AFA2A4651464846FFF79F
:105C7000C1FE044668B9214633465046CDE900B717
:105C800003AAFDF74BFF044618B9BDF80E30C8F85B
:105C90000030204615B0BDE8F08F002B60D122F017
:105CA000FF02B2F5E24F1DD14388BBF11F0F0393F2
:105CB00053D903A9FFF79EFC04460028E9D1024608
:105CC000691E731E1F3511F8010F8D4203F8010F75
:105CD00042EA0002F7D1FAB1039BC8F80030202352
:105CE0003B60D6E7B2F5824F3AD14288B0F800A0C7
:105CF00002920AF44F42B2F5824F18BF4FF0000AE9
:105D0000691E03A81F3511F8014F8D4200F8014BA1
:105D100043EA0403F7D113B96FF08604B9E7BBF186
:105D20001F0F1AD9484602A9FFF764FC0446002851
:105D3000AFD15FFA8AF3122BEED0302BECD0334682
:105D400003AA0BAE154603CDB542186059602A462A
:105D500003F10803F6D1029BBFE76FF0890498E7CF
:105D60006FF0850495E700BF4B4E800030BFFFF712
:105D7000FDBF00BFEFF30880EFF3098101B5724664
:105D8000FDF7EAF801BD00BF002080F31488BFF3DF
:105D90006F8F002080F30A8880F30B880F4880F310
